:020000040800F2
:10000000E8080020150200082F0F0008490E00081C
:100010002D0F000821030008C50F00080000000094
:10002000000000000000000000000000330F000886
:100030002303000800000000310F0008350F0008FE
:100040002F0200082F0200082F0200082F020008CC
:100050002F0200082F0200082F0200082F020008BC
:100060002F0200082F0200082F0200082F020008AC
:100070002F0200082F0200082F0200082F0200089C
:100080002F0200082F0200082F0200082F0200088C
:100090002F0200082F0200082F0200082F0200087C
:1000A0002F0200082F0200082F0200082F0200086C
:1000B0002F0200082F0200082F0200082F0200085C
:1000C0002F0200082F0200082F0200082F0200084C
:1000D0002F0200082F0200082F0200082F0200083C
:1000E0002F0200082F0200082F0200082F0200082C
:1000F0002F0200082F0200082F0200082F0200081C
:100100002F0200082F0200082F0200082F0200080B
:100110002F0200082F0200082F0200082F020008FB
:100120002F0200082F0200082F0200082F020008EB
:100130002F0200082F0200082F0200082F020008DB
:100140002F0200082F0200082F0200082F020008CB
:100150002F0200082F0200082F0200082F020008BB
:100160002F0200082F0200082F0200082F020008AB
:100170002F0200082F0200082F02000800000000D4
:100180002F0200082F020008DFF810D000F0B6F8A8
:1001900000480047D9110008AFF30080E8080020AC
:1001A0000246D2E84F0F411CC2E8431F03B1F8E7F3
:1001B0007047024652E8000F411C42E8001303B1A9
:1001C000F8E77047024652E8000F42E8001303B117
:1001D000F9E77047024652E8000F830103D3BFF3EB
:1001E0002F8F0020704700F00040084342E80003D2
:1001F00003B1F0E77047024652E8000F800103D2D6
:10020000BFF32F8F0020704742E8001303B1F3E7DC
:10021000012070470648804706480047FEE7FEE792
:10022000FEE7FEE7FEE7FEE7FEE7FEE7FEE7FEE7A6
:10023000B50F0008890100082DE9F05F0546002090
:1002400092469B4688460646814640241BE0284647
:1002500041464746224600F041F853465A46C01AE6
:10026000914110D311461846224600F028F82D1A65
:1002700067EB01084F4622460120002100F01FF8DD
:1002800017EB00094E41201EA4F10104DFDC4846B3
:1002900031462A464346BDE8F09FD2B201E000F85D
:1002A000012B491EFBD270470022F6E710B513461A
:1002B0000A4604461946FFF7F0FF204610BD202AE3
:1002C00004DB203A00FA02F1002070479140C2F1AD
:1002D000200320FA03F3194390407047202A04DBDF
:1002E000203A21FA02F00021704721FA02F3D040AF
:1002F000C2F120029140084319467047064C074D51
:1003000006E0E06840F0010394E8070098471034E5
:10031000AC42F6D3FFF73CFF441200086412000819
:10032000FEE770472DE9F0410A4D05F11806AF6967
:1003300000F032F9044601463046FFF743FFB84269
:10034000F5D1844203D203481030FFF732FF204634
:10035000BDE8F081C00400202DE9FF5F8B464FF01F
:10036000805000EADB08400007259A46914641008C
:1003700000EA990701EA5A062048FFF71AFF0146EA
:1003800000F03F021E48890900EB02144FF4700090
:1003900000EA01510098084340EA0800384330431E
:1003A00040F0406104F10C00FFF714FF41011CD53F
:1003B00080F0044101F000402BF000420243226033
:1003C00029F00042024362602AF00042024304F135
:1003D0000C00A260FFF70FFF48B10848001DFFF7AF
:1003E000E8FE012004B0BDE8F09F6D1EC4D10348B3
:1003F0000830FFF7DEFE0020F4E70000C404002010
:10040000400000202DE9F0478146FF2901D2FF2A54
:1004100002D30020BDE8F0870024104D20464FF0A5
:10042000010A0AFA00F3564613EA090F0FD00B46E9
:10043000B2460AE004EBD30603F00708AF5D0AFA00
:1004400008FC47EA0C07AF555B1C9342F2D9401CED
:1004500020340428E5D30120DCE70000400400201C
:100460002DE9F0473C4C88468146002525708021C7
:10047000A4F18000FFF718FF384B4FF6FF761822E3
:10048000304641F2210700BF13F8011B80EA01202A
:100490005FF008015FEA004C06EA400000D57840B2
:1004A000491EF7D1521EEFD12D4A236A01219342F2
:1004B00001D0226202E06288824202D06080E16163
:1004C00037E0E069401CE061012832D0254B002074
:1004D00003EB0011CA68560102D522F04062CA60DF
:1004E000401C4028F4D3E06901282BD000F060F8CC
:1004F0000646DEB1FE2200214846FFF783FFEF22C9
:1005000011460F20FFF77EFFFE2211460420FFF761
:1005100079FFFFF707FF014600231348E269FFF761
:100520001BFFB8F1000F01D000F020F83046BDE805
:10053000F08765706560A5604FF480610948E560EB
:10054000FFF7B2FE00F034F8061E01D000F02AF8E2
:10055000C4E905052561CCE7C00400202C12000881
:100560006B27A5E14000002000FF0003084810B5FC
:10057000017809B1012010BD01210170FFF7D2FE01
:10058000014600231A460348FFF7E6FEF2E70000A3
:10059000C004002001FF00030148406870470000CC
:1005A000001000E001480068704700000C000020C7
:1005B0000548016841F0807101600448016841F01C
:1005C0000101016001207047FCED00E0001000E037
:1005D00070B5044600F010F90546601C02D00448CE
:1005E0000078044400F008F9401BA042FAD370BD23
:1005F000000000202DE9F84FDFF8BCA10022012502
:1006000003264FF00F090AF1040BAAF1040E00BFF4
:100610000B6805FA02F42340A34270D10F7907F06A
:100620000307012F01D0022F16D187684FEA420835
:1006300006FA08FC27EA0C07D1F80CC00CFA08FCF3
:100640004CEA070CC0F808C04768A7430C79C4F30C
:10065000001494403C4344600C79E443A4070AD05E
:10066000C4684FEA420C06FA0CF7BC438F6807FADD
:100670000CF72743C7600C7904F00304022C12D155
:10068000D40800EB840CDCF820405707FF0E09FA71
:1006900007F824EA0804D1F8108008FA07F848EAB5
:1006A0000408CCF8208004684FEA420C06FA0CF7E4
:1006B000BC430F7907F0030707FA0CF727430760DD
:1006C0004C6814F4403F70D03C4C276847F4804796
:1006D0002760246822F0030704F480440094384C17
:1006E00007EB040CDCF8084897074FEA177809FA7B
:1006F00008F7BC43334FB84202D1002724E054E04E
:10070000314FB84201D101271EE0304FB84201D12C
:10071000022719E02E4FB84201D1032714E02D4FD4
:10072000B84201D104270FE02B4FB84201D1052771
:100730000AE02A4FB84201D1062705E0284FB84207
:1007400001D1072700E0082707FA08F72743CCF86C
:100750000878DAF800405746D1F804C09C435FEAB5
:10076000CC2C00D51C433C60DBF800405F46D1F840
:1007700004C09C435FEA8C2C00D51C433C60DEF82F
:1007800000407746D1F804C09C435FEA8C3C00D51A
:100790001C433C60084F083F3C68D1F804C09C43B0
:1007A0005FEACC3C00D51C433C60521C102AFFF48D
:1007B0002FAFBDE8F88F0000083C014044380240EC
:1007C00000300140000002400004024000080240E6
:1007D000000C0240001002400014024000180240C9
:1007E000001C02400069084000D0012070470AB197
:1007F000816170470904FBE7014880687047000089
:10080000000000200248816802781144816070472E
:10081000000000200B4810B5016841F40071016030
:10082000016841F480610160016841F480710160F8
:10083000032000F061F80F2000F006F800F024F823
:10084000002010BD003C024070B50D4D04464FF431
:100850007A712878B1FBF0F00A490968B1FBF0F031
:1008600000F0DEFA48B9102C07D200222146501EB3
:1008700000F022F800206C6070BD012070BD000007
:10088000000000200C0000200A4808B5016841F46F
:1008900080410160006800F4804000900548001F1E
:1008A000016841F080510160006800F080500090C4
:1008B00008BD000044380240F0B40E4B1B680C46E3
:1008C000C3F30223C3F10705042D00D90425191D24
:1008D000072901D2002300E0DB1E012606FA05F1FC
:1008E000491E214099409E40761E16403143F0BC7F
:1008F00000F069BB0CED00E0064900F00702086853
:100900004FF6FF03184040EA0220034A10430860F4
:10091000704700000CED00E00000FA052DE9F047FB
:100920000E46050065D0DFF81481D8F80000F7B254
:1009300000F00700B04207D288F80070D8F8000035
:1009400000F00700B04254D128683D4C810712D511
:10095000400703D5206840F4E05020602878000765
:1009600003D5206840F4604020602068A96820F02A
:10097000F000084320602878C0072DD0304968680F
:100980000839012812D0022813D0032811D0096891
:10099000890700292DDA216821F003010143216034
:1009A000FFF72AFF814641F2883A0EE00968890381
:1009B000EFE709688901ECE7FFF71EFFA0EB0901EB
:1009C000514502D90320BDE8F0872068696800F02E
:1009D0000C00B0EB810FEFD1D8F80010404601F0C9
:1009E0000701B14207D90770006800F00700B04264
:1009F00001D00120E7E72878400705D52068E9689D
:100A000020F4E050084320602878000706D52068CD
:100A1000296920F4604040EAC100206000F018F825
:100A20002168084AC1F30311515CC84006490860B7
:100A300006480068FFF708FF0020C4E7003C0240BA
:100A4000083802401A1200080C00002004000020A0
:100A5000154810B5006810F00C02144813D0144962
:100A6000042A0FD0082A0ED10F4C241F22682368B5
:100A700002F03F025B0207D52068C0F38810A0FB9C
:100A8000010106E0084610BD2168C1F38811A1FBF1
:100A900000010023FFF7D0FB2168C1F30141491C8D
:100AA0004900B0FBF1F010BD083802400024F4000A
:100AB00040787D012DE9F84F04006ED02078DFF8F2
:100AC0004C93C007A9F104054AD009F1040001685C
:100AD000C1F38101012908D00068C0F38100022818
:100AE0000AD1D9F80000400206D52868800337D51E
:100AF00060680028E1D033E06068B0F5803F10D036
:100B0000B0F5A02F286810D020F480302860286825
:100B100020F4802028606068A8B1FFF76DFE0646CB
:100B20000DE0286840F48030F4E740F4802028602D
:100B3000F7E700BFFFF760FE801B642873D82868C2
:100B40008003F7D50CE0FFF757FE064605E000BF2F
:100B5000FFF752FE801B6428F0D828688003F7D482
:100B60002078DFF8AC8280074FF0000A3ED5A74816
:100B7000001D016811F00C0F08D00068C0F381005F
:100B800002280BD1D9F80000400207D4286880075A
:100B900016D5E068012800D112E033E1E068B8B171
:100BA0000120C8F80000FFF727FE064605E000BF59
:100BB000FFF722FE801B0228C0D828688007F7D5DF
:100BC0002868216920F0F80040EAC10028600DE0A3
:100BD000C8F800A0FFF710FE064604E0FFF70CFE81
:100BE000801B02281FD828688007F7D420780007C8
:100BF00022D5864F87486169703771B10121016044
:100C0000FFF7FAFD064604E0FFF7F6FD801B022819
:100C100009D838688007F7D50EE0C0F800A0FFF7C4
:100C2000EBFD064605E082E0FFF7E6FD801B0228AB
:100C30007DD838688007F7D42078400768D5DFF87A
:100C4000CCB100270BF13C0BDBF80000C0000BD44B
:100C5000DBF8001041F08051CBF80010DBF8000009
:100C6000012700F0805000906B4E3068C00510D412
:100C7000306840F480703060FFF7BEFD009005E002
:100C8000FFF7BAFD0099401A022850D83068C00515
:100C9000F6D55E4EA0686C3601280FD00528306866
:100CA00010D020F001003060306820F00400306087
:100CB000A068B8B1FFF7A0FD00900FE0306840F0E9
:100CC0000100F4E740F004003060F7E7FFF794FD1F
:100CD0000099411A41F28830814266D83068800715
:100CE000F4D50EE0FFF788FD009007E0FFF784FDE4
:100CF0000099411A41F28830814256D83068800705
:100D0000F4D42FB1DBF8001021F08051CBF80010A3
:100D1000A069C8B33D49091D0968C1F381010229D1
:100D20004AD00228504607D0C8F8600000E03CE0F6
:100D3000FFF762FD04463BE04746C8F86000FFF756
:100D40005BFD064605E000BFFFF756FD801B02284D
:100D50002BD828688001F7D4D4E907010843A16A99
:100D60002E4A490802EB0141626A41EA82110843B6
:100D700094F82C1040EA0161C9F80010012038668F
:100D8000FFF73AFD044606E03EE000BFFFF734FD02
:100D9000001B022809D828688001F7D534E000BF7D
:100DA000FFF72AFD001B022802D90320BDE8F88FB7
:100DB00028688001F4D427E00128F7D0D9F8000092
:100DC000E26900F4800191421CD1226A00F03F01E7
:100DD000914217D147F6C071626A0140B1EB821FA0
:100DE00010D1A26A4FF0FF3300F4403103EB5202FE
:100DF000B1EB024F06D194F82C1000F07060B0EB0C
:100E0000016F01D00120D1E70020CFE70438024074
:100E100000004742800E4742007000400000FFFF84
:100E200010B5401EB0F1807F01D3012010BD4FF0FE
:100E3000E02460610F21601700F0C5F80020A06178
:100E400007202061002010BDFEE700002DE9F047DB
:100E500086B014216846FFF727FA3048002401685D
:100E600041F480710160016801F4807105910168AD
:100E700041F020010160016801F020010591016845
:100E800041F080010160016801F080010591016875
:100E900041F004010160016801F00401059101685D
:100EA00041F0010101600068DFF8748000F001008A
:100EB0004FF480650590002229464046FFF797FCD5
:100EC000DFF860904FF4C077002239464846FFF7BC
:100ED0008EFCDFF854A0002204215046FFF787FC67
:100EE0000095022601250396CDE901546946404646
:100EF000FFF780FB00970396CDE901546946484609
:100F0000FFF778FB0420CDE90005CDE902466946EC
:100F10005046FFF76FFB06B0BDE8F087303802405F
:100F2000002002400014024000080240FEE7FEE7F5
:100F300070477047FFF766BC10B592B03021684625
:100F4000FFF7B2F914210CA8FFF7AEF917480024F7
:100F5000016841F080510160006800F080501190FC
:100F60001348016841F4804101600068069400F470
:100F700080401190022000900120039010200490E6
:100F80006846FFF797FD08B172B6FEE70F20CDE97E
:100F90000C040E940F9400210CA81094FFF7BEFCD3
:100FA000002801D072B6FEE712B010BD40380240F2
:100FB000007000400248016841F470010160704710
:100FC00088ED00E0FEE70907090E002804DB00F1C8
:100FD000E02080F80014704700F00F0000F1E020DE
:100FE00080F8141D704702E008C8121F08C1002ACB
:100FF000FAD170477047002001E001C1121F002A9A
:10100000FBD170471B4808B5016841F4807101604D
:10101000016801F480710091016841F020010160D4
:10102000016801F020010091016841F08001016038
:10103000016801F080010091016841F00401016044
:10104000016801F004010091016841F001010160B3
:10105000016801F001010091016841F04001016067
:10106000006800F04000009000F01EF8BDE8084065
:1010700000F002B83038024000B585B0142168464F
:10108000FFF712F94FF480700090002001900120CA
:1010900002900220039069460248FFF7ABFA05B0C0
:1010A00000BD0000002002402DE9F047DFF88880F5
:1010B0004FF4806486B0002221464046FFF797FB3C
:1010C000DFF87890002280214846FFF790FBA710B8
:1010D000002239464846FFF78AFBDFF864A0002269
:1010E00004215046FFF783FB14216846FFF7DCF824
:1010F000009401AA01240025022682E870006946B6
:101100004046FFF777FA80208DE87100694648462F
:10111000FFF770FA01AA009782E870006946484616
:10112000FFF768FA04208DE8710069465046FFF722
:1011300061FA06B0BDE8F0870020024000140240CA
:1011400000080240014601280AD00B4802290BD0B2
:1011500003290CD004290DD101220848FFF747BB11
:10116000012291020648F9E701228021F6E70122D7
:101170001102F3E77047000000140240000802402B
:1011800000200240014601280AD00C4802290CD058
:1011900003290DD004290FD100220948FFF727BBEE
:1011A00000224FF480610748F8E700228021F5E72C
:1011B00000224FF48071F1E77047000000140240F4
:1011C00000080240002002404FF480710148FFF700
:1011D00009BB000000200240FFF71CFB01210F208B
:1011E000FFF73EF9FFF7C2F9FFF70CFFFFF7A4FE88
:1011F000FFF72CFE4FF47A74FFF7E6FF0028FBD1CF
:101200000120FFF7BFFF2046FFF7E2F90120FFF7BB
:1012100099FF2046FFF7DCF9EEE700000000000030
:101220000000010203040607080900000100010193
:10123000400000004000002040040020C0040020C6
:1012400000000000641200080000002010000000F0
:10125000E60F00087412000810000020D8080000F3
:10126000F60F000801000000100000000000000060
:041270000024F40062
:040000050800018965
:00000001FF
